{
  "contractName": "FidesToken",
  "abi": [
    {
      "inputs": [],
      "payable": false,
      "stateMutability": "nonpayable",
      "type": "constructor"
    },
    {
      "constant": true,
      "inputs": [],
      "name": "totalSupply",
      "outputs": [
        {
          "internalType": "uint256",
          "name": "",
          "type": "uint256"
        }
      ],
      "payable": false,
      "stateMutability": "view",
      "type": "function"
    }
  ],
  "bytecode": "0x6080604052348015600f57600080fd5b5063014fb1806000819055506084806100296000396000f3fe6080604052348015600f57600080fd5b506004361060285760003560e01c806318160ddd14602d575b600080fd5b60336049565b6040518082815260200191505060405180910390f35b6000548156fea265627a7a7231582053dc082aea75be67d08fc821829d6180c012d88bcc8b21fa9b422a2b7aee25aa64736f6c63430005100032",
  "source": "pragma solidity ^0.5.16;\n\ncontract FidesToken {\n    uint256 public totalSupply;\n\n    constructor() public {\n        totalSupply = 22000000;\n    }\n}",
  "sourcePath": "/Users/macbookair/Documents/token_sale/contracts/FidesToken.sol",
  "compiler": {
    "name": "solc",
    "version": "0.5.16+commit.9c3226ce.Emscripten.clang"
  },
  "schemaVersion": "3.4.14",
  "updatedAt": "2023-08-04T02:13:57.144Z",
  "networkType": "ethereum",
  "devdoc": {
    "methods": {}
  },
  "userdoc": {
    "methods": {}
  }
}