{
  "contractName": "FidesTokenSale",
  "abi": [
    {
      "inputs": [
        {
          "internalType": "contract FidesToken",
          "name": "_tokenContract",
          "type": "address"
        },
        {
          "internalType": "uint256",
          "name": "_tokenPrice",
          "type": "uint256"
        }
      ],
      "payable": false,
      "stateMutability": "nonpayable",
      "type": "constructor"
    },
    {
      "anonymous": false,
      "inputs": [
        {
          "indexed": false,
          "internalType": "address",
          "name": "_buyer",
          "type": "address"
        },
        {
          "indexed": false,
          "internalType": "uint256",
          "name": "_amount",
          "type": "uint256"
        }
      ],
      "name": "Sell",
      "type": "event"
    },
    {
      "constant": true,
      "inputs": [],
      "name": "tokenAddress",
      "outputs": [
        {
          "internalType": "address",
          "name": "",
          "type": "address"
        }
      ],
      "payable": false,
      "stateMutability": "view",
      "type": "function"
    },
    {
      "constant": true,
      "inputs": [],
      "name": "tokenContract",
      "outputs": [
        {
          "internalType": "contract FidesToken",
          "name": "",
          "type": "address"
        }
      ],
      "payable": false,
      "stateMutability": "view",
      "type": "function"
    },
    {
      "constant": true,
      "inputs": [],
      "name": "tokenPrice",
      "outputs": [
        {
          "internalType": "uint256",
          "name": "",
          "type": "uint256"
        }
      ],
      "payable": false,
      "stateMutability": "view",
      "type": "function"
    },
    {
      "constant": true,
      "inputs": [],
      "name": "tokensSold",
      "outputs": [
        {
          "internalType": "uint256",
          "name": "",
          "type": "uint256"
        }
      ],
      "payable": false,
      "stateMutability": "view",
      "type": "function"
    },
    {
      "constant": false,
      "inputs": [
        {
          "internalType": "uint256",
          "name": "_numberOfTokens",
          "type": "uint256"
        }
      ],
      "name": "buyTokens",
      "outputs": [],
      "payable": true,
      "stateMutability": "payable",
      "type": "function"
    },
    {
      "constant": false,
      "inputs": [],
      "name": "endSale",
      "outputs": [],
      "payable": false,
      "stateMutability": "nonpayable",
      "type": "function"
    }
  ],
  "bytecode": "0x608060405234801561001057600080fd5b506040516109fb3803806109fb8339818101604052604081101561003357600080fd5b810190808051906020019092919080519060200190929190505050336000806101000a81548173ffffffffffffffffffffffffffffffffffffffff021916908373ffffffffffffffffffffffffffffffffffffffff16021790555081600160006101000a81548173ffffffffffffffffffffffffffffffffffffffff021916908373ffffffffffffffffffffffffffffffffffffffff1602179055508060028190555081600460006101000a81548173ffffffffffffffffffffffffffffffffffffffff021916908373ffffffffffffffffffffffffffffffffffffffff16021790555050506108d3806101286000396000f3fe6080604052600436106100555760003560e01c80633610724e1461005a578063380d831b14610088578063518ab2a81461009f57806355a373d6146100ca5780637ff9b596146101215780639d76ea581461014c575b600080fd5b6100866004803603602081101561007057600080fd5b81019080803590602001909291905050506101a3565b005b34801561009457600080fd5b5061009d610512565b005b3480156100ab57600080fd5b506100b46107c2565b6040518082815260200191505060405180910390f35b3480156100d657600080fd5b506100df6107c8565b604051808273ffffffffffffffffffffffffffffffffffffffff1673ffffffffffffffffffffffffffffffffffffffff16815260200191505060405180910390f35b34801561012d57600080fd5b506101366107ee565b6040518082815260200191505060405180910390f35b34801561015857600080fd5b506101616107f4565b604051808273ffffffffffffffffffffffffffffffffffffffff1673ffffffffffffffffffffffffffffffffffffffff16815260200191505060405180910390f35b60006101b18260025461081a565b905080341461020b576040517f08c379a00000000000000000000000000000000000000000000000000000000081526004018080602001828103825260308152602001806108476030913960400191505060405180910390fd5b81600160009054906101000a900473ffffffffffffffffffffffffffffffffffffffff1673ffffffffffffffffffffffffffffffffffffffff166370a08231306040518263ffffffff1660e01b8152600401808273ffffffffffffffffffffffffffffffffffffffff1673ffffffffffffffffffffffffffffffffffffffff16815260200191505060206040518083038186803b1580156102ab57600080fd5b505afa1580156102bf573d6000803e3d6000fd5b505050506040513d60208110156102d557600080fd5b8101908080519060200190929190505050101561033d576040517f08c379a00000000000000000000000000000000000000000000000000000000081526004018080602001828103825260288152602001806108776028913960400191505060405180910390fd5b600160009054906101000a900473ffffffffffffffffffffffffffffffffffffffff1673ffffffffffffffffffffffffffffffffffffffff1663a9059cbb33846040518363ffffffff1660e01b8152600401808373ffffffffffffffffffffffffffffffffffffffff1673ffffffffffffffffffffffffffffffffffffffff16815260200182815260200192505050602060405180830381600087803b1580156103e657600080fd5b505af11580156103fa573d6000803e3d6000fd5b505050506040513d602081101561041057600080fd5b8101908080519060200190929190505050610493576040517f08c379a00000000000000000000000000000000000000000000000000000000081526004018080602001828103825260158152602001807f546f6b656e207472616e73666572206661696c6564000000000000000000000081525060200191505060405180910390fd5b816003600082825401925050819055507f5e5e995ce3133561afceaa51a9a154d5db228cd7525d34df5185582c18d3df093383604051808373ffffffffffffffffffffffffffffffffffffffff1673ffffffffffffffffffffffffffffffffffffffff1681526020018281526020019250505060405180910390a15050565b6000809054906101000a900473ffffffffffffffffffffffffffffffffffffffff1673ffffffffffffffffffffffffffffffffffffffff163373ffffffffffffffffffffffffffffffffffffffff161461056b57600080fd5b6000600160009054906101000a900473ffffffffffffffffffffffffffffffffffffffff1673ffffffffffffffffffffffffffffffffffffffff166370a08231306040518263ffffffff1660e01b8152600401808273ffffffffffffffffffffffffffffffffffffffff1673ffffffffffffffffffffffffffffffffffffffff16815260200191505060206040518083038186803b15801561060c57600080fd5b505afa158015610620573d6000803e3d6000fd5b505050506040513d602081101561063657600080fd5b81019080805190602001909291905050509050600160009054906101000a900473ffffffffffffffffffffffffffffffffffffffff1673ffffffffffffffffffffffffffffffffffffffff1663a9059cbb6000809054906101000a900473ffffffffffffffffffffffffffffffffffffffff16836040518363ffffffff1660e01b8152600401808373ffffffffffffffffffffffffffffffffffffffff1673ffffffffffffffffffffffffffffffffffffffff16815260200182815260200192505050602060405180830381600087803b15801561071357600080fd5b505af1158015610727573d6000803e3d6000fd5b505050506040513d602081101561073d57600080fd5b810190808051906020019092919050505061075757600080fd5b6000809054906101000a900473ffffffffffffffffffffffffffffffffffffffff1673ffffffffffffffffffffffffffffffffffffffff166108fc479081150290604051600060405180830381858888f193505050501580156107be573d6000803e3d6000fd5b5050565b60035481565b600160009054906101000a900473ffffffffffffffffffffffffffffffffffffffff1681565b60025481565b600460009054906101000a900473ffffffffffffffffffffffffffffffffffffffff1681565b600080821480610837575082828385029250828161083457fe5b04145b61084057600080fd5b9291505056fe496e73756666696369656e742065746865722073656e7420666f7220746865206e756d626572206f6620746f6b656e734e6f7420656e6f75676820746f6b656e7320617661696c61626c6520666f72207075726368617365a265627a7a7231582022cd21e468ab5edf8b72cb0dccc22415cac2ba901e73dd9ab6b92db40ce4b07864736f6c63430005100032",
  "source": "pragma solidity ^0.5.16;\nimport \"./FidesToken.sol\";\n\ncontract FidesTokenSale {\n  address payable admin;\n  FidesToken public tokenContract;\n  uint256 public tokenPrice;\n  uint256 public tokensSold;\n  address public tokenAddress;\n\n  event Sell(address _buyer, uint256 _amount);\n  \n  constructor (FidesToken _tokenContract, uint256 _tokenPrice) public {\n    admin = msg.sender;\n    tokenContract = _tokenContract;\n    tokenPrice = _tokenPrice;\n    tokenAddress = address(_tokenContract);\n  }\n\n  // multiplier function\n  function multiply(uint x, uint y) internal pure returns (uint z) {\n    require(y == 0 || (z = x * y) / y == x);\n  }\n\n  function buyTokens(uint256 _numberOfTokens) public payable {\n    /* require(msg.value == multiply(_numberOfTokens, tokenPrice));\n    require(tokenContract.balanceOf(tokenAddress) >= _numberOfTokens);\n    require(tokenContract.transfer(msg.sender, _numberOfTokens));\n    tokensSold += _numberOfTokens;\n    emit Sell(msg.sender, _numberOfTokens); */\n    uint256 requiredAmount = multiply(_numberOfTokens, tokenPrice);\n    require(msg.value == requiredAmount, \"Insufficient ether sent for the number of tokens\");\n    // console.log(\"Token Address:\", tokenAddress);\n    require(tokenContract.balanceOf(address(this)) >= _numberOfTokens, \"Not enough tokens available for purchase\");\n    require(tokenContract.transfer(msg.sender, _numberOfTokens), \"Token transfer failed\");\n\n    tokensSold += _numberOfTokens;\n\n    // emit sell event\n    emit Sell(msg.sender, _numberOfTokens);\n  }\n\n  // ending token sale\n  function endSale() public {\n    // require admin\n    require(msg.sender == admin);\n    \n    \n    /* // transfer remaining tokens back to admin\n    require(tokenContract.transfer(admin, tokenContract.balanceOf(tokenAddress)));\n    // t-minus transfer back to admin address\n    admin.transfer(address(this).balance); */\n\n    // Transfer remaining tokens back to admin\n    uint256 unsoldTokens = tokenContract.balanceOf(address(this));\n    require(tokenContract.transfer(admin, unsoldTokens));\n    \n    // Transfer remaining ether balance back to admin\n    admin.transfer(address(this).balance);\n  }\n}",
  "sourcePath": "/Users/macbookair/Documents/token_sale/contracts/FidesTokenSale.sol",
  "compiler": {
    "name": "solc",
    "version": "0.5.16+commit.9c3226ce.Emscripten.clang"
  },
  "schemaVersion": "3.4.14",
  "updatedAt": "2023-08-06T10:54:18.233Z",
  "networkType": "ethereum",
  "devdoc": {
    "methods": {}
  },
  "userdoc": {
    "methods": {}
  }
}