{
  "contractName": "FidesTokenSale",
  "abi": [
    {
      "inputs": [
        {
          "internalType": "contract FidesToken",
          "name": "_tokenContract",
          "type": "address"
        },
        {
          "internalType": "uint256",
          "name": "_tokenPrice",
          "type": "uint256"
        }
      ],
      "payable": false,
      "stateMutability": "nonpayable",
      "type": "constructor"
    },
    {
      "anonymous": false,
      "inputs": [
        {
          "indexed": false,
          "internalType": "address",
          "name": "_buyer",
          "type": "address"
        },
        {
          "indexed": false,
          "internalType": "uint256",
          "name": "_amount",
          "type": "uint256"
        }
      ],
      "name": "Sell",
      "type": "event"
    },
    {
      "constant": true,
      "inputs": [],
      "name": "tokenAddress",
      "outputs": [
        {
          "internalType": "address",
          "name": "",
          "type": "address"
        }
      ],
      "payable": false,
      "stateMutability": "view",
      "type": "function"
    },
    {
      "constant": true,
      "inputs": [],
      "name": "tokenContract",
      "outputs": [
        {
          "internalType": "contract FidesToken",
          "name": "",
          "type": "address"
        }
      ],
      "payable": false,
      "stateMutability": "view",
      "type": "function"
    },
    {
      "constant": true,
      "inputs": [],
      "name": "tokenPrice",
      "outputs": [
        {
          "internalType": "uint256",
          "name": "",
          "type": "uint256"
        }
      ],
      "payable": false,
      "stateMutability": "view",
      "type": "function"
    },
    {
      "constant": true,
      "inputs": [],
      "name": "tokensSold",
      "outputs": [
        {
          "internalType": "uint256",
          "name": "",
          "type": "uint256"
        }
      ],
      "payable": false,
      "stateMutability": "view",
      "type": "function"
    },
    {
      "constant": false,
      "inputs": [
        {
          "internalType": "uint256",
          "name": "_numberOfTokens",
          "type": "uint256"
        }
      ],
      "name": "buyTokens",
      "outputs": [],
      "payable": true,
      "stateMutability": "payable",
      "type": "function"
    },
    {
      "constant": false,
      "inputs": [],
      "name": "endSale",
      "outputs": [],
      "payable": false,
      "stateMutability": "nonpayable",
      "type": "function"
    }
  ],
  "bytecode": "0x608060405234801561001057600080fd5b506040516108893803806108898339818101604052604081101561003357600080fd5b810190808051906020019092919080519060200190929190505050336000806101000a81548173ffffffffffffffffffffffffffffffffffffffff021916908373ffffffffffffffffffffffffffffffffffffffff16021790555081600160006101000a81548173ffffffffffffffffffffffffffffffffffffffff021916908373ffffffffffffffffffffffffffffffffffffffff1602179055508060028190555081600460006101000a81548173ffffffffffffffffffffffffffffffffffffffff021916908373ffffffffffffffffffffffffffffffffffffffff1602179055505050610761806101286000396000f3fe6080604052600436106100555760003560e01c80633610724e1461005a578063380d831b14610088578063518ab2a81461009f57806355a373d6146100ca5780637ff9b596146101215780639d76ea581461014c575b600080fd5b6100866004803603602081101561007057600080fd5b81019080803590602001909291905050506101a3565b005b34801561009457600080fd5b5061009d61042d565b005b3480156100ab57600080fd5b506100b46106a8565b6040518082815260200191505060405180910390f35b3480156100d657600080fd5b506100df6106ae565b604051808273ffffffffffffffffffffffffffffffffffffffff1673ffffffffffffffffffffffffffffffffffffffff16815260200191505060405180910390f35b34801561012d57600080fd5b506101366106d4565b6040518082815260200191505060405180910390f35b34801561015857600080fd5b506101616106da565b604051808273ffffffffffffffffffffffffffffffffffffffff1673ffffffffffffffffffffffffffffffffffffffff16815260200191505060405180910390f35b6101af81600254610700565b34146101ba57600080fd5b80600160009054906101000a900473ffffffffffffffffffffffffffffffffffffffff1673ffffffffffffffffffffffffffffffffffffffff166370a08231600460009054906101000a900473ffffffffffffffffffffffffffffffffffffffff166040518263ffffffff1660e01b8152600401808273ffffffffffffffffffffffffffffffffffffffff1673ffffffffffffffffffffffffffffffffffffffff16815260200191505060206040518083038186803b15801561027c57600080fd5b505afa158015610290573d6000803e3d6000fd5b505050506040513d60208110156102a657600080fd5b810190808051906020019092919050505010156102c257600080fd5b600160009054906101000a900473ffffffffffffffffffffffffffffffffffffffff1673ffffffffffffffffffffffffffffffffffffffff1663a9059cbb33836040518363ffffffff1660e01b8152600401808373ffffffffffffffffffffffffffffffffffffffff1673ffffffffffffffffffffffffffffffffffffffff16815260200182815260200192505050602060405180830381600087803b15801561036b57600080fd5b505af115801561037f573d6000803e3d6000fd5b505050506040513d602081101561039557600080fd5b81019080805190602001909291905050506103af57600080fd5b806003600082825401925050819055507f5e5e995ce3133561afceaa51a9a154d5db228cd7525d34df5185582c18d3df093382604051808373ffffffffffffffffffffffffffffffffffffffff1673ffffffffffffffffffffffffffffffffffffffff1681526020018281526020019250505060405180910390a150565b6000809054906101000a900473ffffffffffffffffffffffffffffffffffffffff1673ffffffffffffffffffffffffffffffffffffffff163373ffffffffffffffffffffffffffffffffffffffff161461048657600080fd5b600160009054906101000a900473ffffffffffffffffffffffffffffffffffffffff1673ffffffffffffffffffffffffffffffffffffffff1663a9059cbb6000809054906101000a900473ffffffffffffffffffffffffffffffffffffffff16600160009054906101000a900473ffffffffffffffffffffffffffffffffffffffff1673ffffffffffffffffffffffffffffffffffffffff166370a08231600460009054906101000a900473ffffffffffffffffffffffffffffffffffffffff166040518263ffffffff1660e01b8152600401808273ffffffffffffffffffffffffffffffffffffffff1673ffffffffffffffffffffffffffffffffffffffff16815260200191505060206040518083038186803b1580156105a757600080fd5b505afa1580156105bb573d6000803e3d6000fd5b505050506040513d60208110156105d157600080fd5b81019080805190602001909291905050506040518363ffffffff1660e01b8152600401808373ffffffffffffffffffffffffffffffffffffffff1673ffffffffffffffffffffffffffffffffffffffff16815260200182815260200192505050602060405180830381600087803b15801561064b57600080fd5b505af115801561065f573d6000803e3d6000fd5b505050506040513d602081101561067557600080fd5b810190808051906020019092919050505061068f57600080fd5b3373ffffffffffffffffffffffffffffffffffffffff16ff5b60035481565b600160009054906101000a900473ffffffffffffffffffffffffffffffffffffffff1681565b60025481565b600460009054906101000a900473ffffffffffffffffffffffffffffffffffffffff1681565b60008082148061071d575082828385029250828161071a57fe5b04145b61072657600080fd5b9291505056fea265627a7a723158205cd612d681194261b1e85bfe7f62aa02aeb4aa64658516d503ce796203660be264736f6c63430005100032",
  "source": "pragma solidity ^0.5.16;\nimport \"./FidesToken.sol\";\n\ncontract FidesTokenSale {\n  address admin;\n  FidesToken public tokenContract;\n  uint256 public tokenPrice;\n  uint256 public tokensSold;\n  address public tokenAddress;\n\n  event Sell(address _buyer, uint256 _amount);\n  \n  constructor (FidesToken _tokenContract, uint256 _tokenPrice) public {\n    admin = msg.sender;\n    tokenContract = _tokenContract;\n    tokenPrice = _tokenPrice;\n    tokenAddress = address(_tokenContract);\n  }\n\n  // multiplier function\n  function multiply(uint x, uint y) internal pure returns (uint z) {\n    require(y == 0 || (z = x * y) / y == x);\n  }\n\n  function buyTokens(uint256 _numberOfTokens) public payable {\n    require(msg.value == multiply(_numberOfTokens, tokenPrice));\n    // come back to this :)\n    require(tokenContract.balanceOf(tokenAddress) >= _numberOfTokens);\n    require(tokenContract.transfer(msg.sender, _numberOfTokens));\n    tokensSold += _numberOfTokens;\n\n    // emit sell event\n    emit Sell(msg.sender, _numberOfTokens);\n  }\n\n  // ending token sale\n  function endSale() public {\n    // require admin\n    require(msg.sender == admin);\n    // transfer remaining tokens back to admin\n    require(tokenContract.transfer(admin, tokenContract.balanceOf(tokenAddress)));\n    // t-minus destroy contract\n    selfdestruct(msg.sender);\n  }\n}",
  "sourcePath": "/Users/macbookair/Documents/token_sale/contracts/FidesTokenSale.sol",
  "compiler": {
    "name": "solc",
    "version": "0.5.16+commit.9c3226ce.Emscripten.clang"
  },
  "schemaVersion": "3.4.14",
  "updatedAt": "2023-08-04T19:25:34.484Z",
  "networkType": "ethereum",
  "devdoc": {
    "methods": {}
  },
  "userdoc": {
    "methods": {}
  }
}